:020000040800F2
:1000000000000A200135000851350008513500086C
:1000100051350008513500085135000851350008A8
:100020000000000000000000000000005135000842
:100030005135000800000000513500085135000816
:100040005135000851350008513500085135000878
:100050005135000851350008513500085135000868
:100060005135000851350008513500085135000858
:100070005135000851350008513500085135000848
:100080005135000851350008513500085135000838
:100090005135000851350008513500085135000828
:1000A0005135000851350008513500085135000818
:1000B0005135000851350008513500085135000808
:1000C00051350008513500085135000851350008F8
:1000D0000000000051350008513500085135000876
:1000E00051350008513500085135000851350008D8
:1000F00051350008513500085135000851350008C8
:1001000051350008513500085135000851350008B7
:1001100051350008513500085135000851350008A7
:100120005135000851350008513500085135000897
:100130005135000851350008513500085135000887
:100140005135000851350008513500085135000877
:100150005135000851350008513500085135000867
:100160005135000851350008513500085135000857
:100170005135000851350008513500085135000847
:100180005135000851350008513500085135000837
:100190005135000851350008513500085135000827
:1001A0005135000851350008513500085135000817
:1001B0005135000851350008513500085135000807
:1001C00051350008513500085135000851350008F7
:1001D00051350008513500085135000851350008E7
:1001E00051350008513500085135000851350008D7
:1001F00051350008513500085135000851350008C7
:100200005135000851350008513500080000000044
:1002100000000000513500080000000051350008C2
:100220005135000851350008513500085135000896
:100230005135000851350008513500085135000886
:0C02400051350008513500085135000808
:10024C0080B485B000AF78600023FB6003E000BF92
:10025C00FB680133FB607B684FF47A5202FB03F3BB
:10026C00FA689A42F3D300BF00BF1437BD465DF85D
:10027C00047B704780B487B000AF284BD3F88C3028
:10028C00264A43F00203C2F88C30244BD3F88C304E
:10029C0003F002037B617B69204BD3F88C301F4A3F
:1002AC0043F04003C2F88C301C4BD3F88C3003F075
:1002BC0040033B613B69194BD3F88C30174A43F030
:1002CC002003C2F88C30154BD3F88C3003F020038C
:1002DC00FB60FB68114BD3F88C30104A43F00403DD
:1002EC00C2F88C300D4BD3F88C3003F00403BB6098
:1002FC00BB680A4BD3F88C30084A43F00103C2F8B0
:10030C008C30064BD3F88C3003F001037B607B6898
:10031C0000BF1C37BD465DF8047B7047000C0244DF
:10032C0080B586B000AFFFF7A5FF544BD3F89430DF
:10033C00524A43F00203C2F89430504BD3F8943035
:10034C004E4A43F04003C2F894304C4BD3F89430EF
:10035C004A4A43F02003C2F89430494B1B68484A80
:10036C0023F440631360464B1B68454A43F4806397
:10037C001360444B1B68434A23F440631360414BA6
:10038C001B68404A43F4806313603F4B1B683E4A32
:10039C0023F4406313603C4B1B683B4A43F480637B
:1003AC001360374B1B68364A23F003031360344B3E
:1003BC001B68334A43F001031360334B1B68324A0A
:1003CC0023F440731360304B1B682F4A43F4807343
:1003DC0013602C4B1B682B4A23F440731360294B7E
:1003EC001B68284A43F480731360254B5B68244ACE
:1003FC0023F001035360224B9B68214A43F0030313
:10040C0093601F4BDB681E4A23F00303D360012368
:10041C007B600123BB600023FB6003233B613B1D1E
:10042C001946174800F0F6FE154B5B69144A83F029
:10043C0020035361134B5B69124A83F02003536111
:10044C00114B5B69104A83F0200353610C4B5B69C1
:10045C000B4A83F0010353610B4B5B690A4A83F02F
:10046C0010035361074B5B69064A83F01003536119
:10047C006420FFF7E5FE00BFD6E700BF000C024486
:10048C0000040242001802420014024280B400AF81
:10049C0000BFBD465DF8047B704700BF80B483B0DD
:1004AC0000AF354BD3F88830334A43F47003C2F8AD
:1004BC008830324B01221A60304B0022DA612F4B0C
:1004CC0000221A622D4B1A682C492D4B13400B60DD
:1004DC002A4B00229A62294B0022DA62274B002217
:1004EC001A63264B274A5A63244B00229A63234BE8
:1004FC00244ADA63214B00221A64204B214A5A64A5
:10050C001E4B00229A641D4B1B681C4A23F480234B
:10051C0013601A4B00221A65174B4FF000629A6059
:10052C00194B9B6903F060437B607B68B3F1604FB0
:10053C0003D07B68B3F1404F17D1134BDB6903F049
:10054C000103002B05D0104B104ADA600E4B104AF9
:10055C00DA600D4BDB690C4A43F00203D3610A4BA2
:10056C00DB69094A43F00103D36100BF0C37BD4678
:10057C005DF8047B704700BF00ED00E0000C024406
:10058C00E3EAE2EA80020101002002403B2A19085A
:10059C007F6E5D4C80B489B000AF904BDB6903F08B
:1005AC001803182B00F2028101A252F823F000BFAD
:1005BC0021060008B9070008B9070008B9070008A8
:1005CC00B9070008B9070008B9070008B9070008FF
:1005DC0037060008B9070008B9070008B907000872
:1005EC00B9070008B9070008B9070008B9070008DF
:1005FC003F060008B9070008B9070008B90700084A
:10060C00B9070008B9070008B9070008B9070008BE
:10061C0047060008714B1B68DB0803F00303704AA4
:10062C0022FA03F36F4A1360C4E06E4B6E4A1A60F1
:10063C00C0E06C4B6D4A1A60BCE0684B9B6A03F0DF
:10064C000303BB61654B9B6A1B0A03F03F037B6191
:10065C00624B9B6A1B0903F001033B615F4B9B6B75
:10066C00DB08C3F30C033A6902FB03F307EE903A81
:10067C00F8EE677AC7ED037ABB69032B59D0BB69D7
:10068C00032B78D8BB69012B03D0BB69022B2ED06E
:10069C0071E0524B1B68DB0803F00303504A22FA4B
:1006AC0003F3BB60BB6807EE903AF8EE676A7B69B0
:1006BC0007EE903AF8EE677A86EEA77A474B5B6BBB
:1006CC00C3F3080307EE903AF8EE676A97ED036AF6
:1006DC00DFED475AC6EE257A76EEA77AF7EE006A7A
:1006EC0077EEA67A67EE277AC7ED077A47E07B6943
:1006FC0007EE903AF8EE677ADFED3E6A86EEA77A5F
:10070C00364B5B6BC3F3080307EE903AF8EE676A5F
:10071C0097ED036ADFED365AC6EE257A76EEA77AA8
:10072C00F7EE006A77EEA67A67EE277AC7ED077ABE
:10073C0025E07B6907EE903AF8EE677ADFED2E6ADA
:10074C0086EEA77A254B5B6BC3F3080307EE903A52
:10075C00F8EE676A97ED036ADFED255AC6EE257A47
:10076C0076EEA77AF7EE006A77EEA67A67EE277A2E
:10077C00C7ED077A03E04FF00003FB6100BF174B96
:10078C005B6B5B0A03F07F0301337B607B6807EED6
:10079C00903AB8EE677AD7ED076AC6EE877AFCEE28
:1007AC00E77A17EE902A0F4B1A6003E00D4B0C4AB8
:1007BC001A6000BF094B1B6A03F00F030F4AD35C8E
:1007CC003B60084B1A683B6822FA03F3054A136036
:1007DC0000BF2437BD465DF8047B7047000C024413
:1007EC000090D0030000002000093D0040787D01FE
:1007FC00000000460024744A20BCBE4B543500084F
:10080C003C360008000000200C0000200C000020EA
:10081C001000002080B500AF032002F019FC01F09D
:10082C0073FF02460C4B1B6A03F00F030B49CB5CA6
:10083C0022FA03F30A4A1360042002F0C7FC0F20CB
:10084C0000F062F80346002B01D0012302E000F017
:10085C004DF80023184680BD000C024454350008A6
:10086C000000002080B500AF184B194A5A67174B8F
:10087C00184A9A67154B00225A67144B00229A6744
:10088C00124B154ADA67114B0022DA670F4B134AE9
:10089C00C3F880200D4B0022C3F880200B4B104A6C
:1008AC001A660A4B00221A66084B0E4A5A66074B08
:1008BC0000225A66054B0C4ADA66044B0022DA66B3
:1008CC0000F01BF80023184680BD00BF000C02444A
:1008DC00FFC1FEDF2B06804000787F01E00810008E
:1008EC0003D00A01FF1D1F008018110080B400AF57
:1008FC0000BFBD465DF8047B704780B400AF00BFFD
:10090C00BD465DF8047B704780B584B000AF78605D
:10091C000023FB60334B1B78002B01D101235CE0DF
:10092C00314B1B6803F00403042B0CD12F4B1A68BA
:10093C002C4B1B7819464FF47A73B3FBF1F3B2FBD3
:10094C00F3F3FB6037E002F099FCB860BB68022B54
:10095C0023D0BB68022B2DD8BB68002B03D0BB68FF
:10096C00012B0DD026E0214B1A681E4B1B78194623
:10097C004FF4FA53B3FBF1F3B2FBF3F3FB601AE061
:10098C00184B1B781A464FF47A73B3FBF2F34FF4FF
:10099C00FA42B2FBF3F3FB600DE0124B1B781A46E4
:1009AC004FF47A73B3FBF2F34FF40042B2FBF3F360
:1009BC00FB6000E000BFF86802F0E6FB0346002B8A
:1009CC0001D0012309E0002279684FF0FF3002F0DA
:1009DC004AFB074A7B681360002318461037BD4654
:1009EC0080BD00BF0800002010E000E000000020E7
:1009FC000400002080B400AF064B1B781A46064B4F
:100A0C001B681344044A136000BFBD465DF8047BA9
:100A1C00704700BF080000200C00002080B400AF1D
:100A2C00034B1B681846BD465DF8047B704700BF3E
:100A3C000C00002080B400AF034B1B681846BD4669
:100A4C005DF8047B704700BF0400002080B584B0C3
:100A5C0000AF0346FB710023FB730E4B1B78FA7936
:100A6C009A4212D00B4B1B78BB730A4AFB7913705A
:100A7C00094B1B681846FFF747FF0346FB73FB7BCC
:100A8C00002B02D0034ABB7B1370FB7B184610373C
:100A9C00BD4680BD080000200400002080B400AFDB
:100AAC00034B1B781846BD465DF8047B704700BFAE
:100ABC000800002080B584B000AF7860FFF7AEFF6F
:100ACC00B8607B68FB60FB68B3F1FF3F05D00A4B55
:100ADC001B781A46FB681344FB6000BFFFF79EFFB0
:100AEC000246BB68D31AFA689A42F7D800BF00BF17
:100AFC001037BD4680BD00BF0800002080B400AF99
:100B0C00054B1B68044A23F00203136000BFBD466B
:100B1C005DF8047B704700BF10E000E080B400AFCC
:100B2C00054B1B68044A43F00203136000BFBD462B
:100B3C005DF8047B704700BF10E000E080B400AFAC
:100B4C00024B1846BD465DF8047B7047000005015A
:100B5C0080B400AF044B1B681B0C9BB21846BD46FF
:100B6C005DF8047B704700BF0040024480B400AFC6
:100B7C00044B1B68C3F30B031846BD465DF8047B9E
:100B8C00704700BF0040024480B400AF034B1B68A9
:100B9C001846BD465DF8047B704700BF00F8FF089F
:100BAC0080B400AF034B1B681846BD465DF8047B50
:100BBC00704700BF04F8FF0880B400AF034B1B68FC
:100BCC001846BD465DF8047B704700BF08F8FF0867
:100BDC0080B400AF054B5B68044A43F002035360DA
:100BEC0000BFBD465DF8047B704700BF0040024467
:100BFC0080B400AF054B5B68044A23F002035360DA
:100C0C0000BFBD465DF8047B704700BF0040024446
:100C1C0080B400AF054B5B68044A43F00403536097
:100C2C0000BFBD465DF8047B704700BF0040024426
:100C3C0080B400AF054B5B68044A23F00403536097
:100C4C0000BFBD465DF8047B704700BF0040024406
:100C5C0080B483B000AF7860064B1B6823F0700241
:100C6C0004497B6813430B6000BF0C37BD465DF82D
:100C7C00047B70470074004480B483B000AF78608C
:100C8C00064B1B6823F0020204497B6813430B607C
:100C9C0000BF0C37BD465DF8047B70470074004400
:100CAC0080B483B000AF7860064B5B6823F03F02E2
:100CBC0004497B6813434B6000BF0C37BD465DF89D
:100CCC00047B70470074004480B582B000AF0F4BBA
:100CDC001B680E4A43F001031360FFF79FFE786018
:100CEC0008E0FFF79BFE02467B68D31A0A2B01D95A
:100CFC00032306E0054B1B6803F00803002BF0D020
:100D0C00002318460837BD4680BD00BF0074004460
:100D1C0080B400AF054B1B68044A23F00103136039
:100D2C0000BFBD465DF8047B704700BF00740044F3
:100D3C0080B483B000AF7860074BD3F8003123F454
:100D4C00600205497B681343C1F8003100BF0C37C2
:100D5C00BD465DF8047B70470004004480B400AFCE
:100D6C00064BD3F81031054A43F00103C2F8103199
:100D7C0000BFBD465DF8047B704700BF0004004413
:100D8C0080B400AF064BD3F81031054A23F00103B1
:100D9C00C2F8103100BFBD465DF8047B704700BF40
:100DAC000004004480B400AF064BD3F81031054A60
:100DBC0043F00403C2F8103100BFBD465DF8047B5C
:100DCC00704700BF0004004480B400AF064BD3F85A
:100DDC001031054A23F00403C2F8103100BFBD46A0
:100DEC005DF8047B704700BF0004004480B483B0FE
:100DFC0000AF7860074BD3F8103123F0020205499D
:100E0C007B681343C1F8103100BF0C37BD465DF849
:100E1C00047B70470004004480B483B000AF78605A
:100E2C00074BD3F8103123F0080205497B681343B4
:100E3C00C1F8103100BF0C37BD465DF8047B70471C
:100E4C000004004480B400AF074BD3F8103103F416
:100E5C008073B3F5807F01D1012300E00023184695
:100E6C00BD465DF8047B70470004004480B400AFBD
:100E7C00074BD3F8103103F40073B3F5007F01D1A5
:100E8C00012300E000231846BD465DF8047B704743
:100E9C000004004480B483B000AF78603960094B23
:100EAC00D3F8183123F0FF027B6819013B680B4320
:100EBC0004491343C1F8183100BF0C37BD465DF827
:100ECC00047B70470004004480B483B000AF7860AA
:100EDC0039600A4BD3F8183123F47F427B6819032D
:100EEC003B681B020B4305491343C1F8183100BF83
:100EFC000C37BD465DF8047B704700BF000400440E
:100F0C0080B400AF044BD3F8143103F00F03184630
:100F1C00BD465DF8047B70470004004480B400AF0C
:100F2C00054BD3F814311B0903F00F031846BD46CB
:100F3C005DF8047B704700BF0004004480B400AF30
:100F4C00054BD3F814311B0A03F00F031846BD46AA
:100F5C005DF8047B704700BF0004004480B400AF10
:100F6C00054BD3F814311B0B03F00F031846BD4689
:100F7C005DF8047B704700BF0004004480B400AFF0
:100F8C00064BD3F84C31054A43F00103C2F84C31FF
:100F9C0000BFBD465DF8047B704700BF00040044F1
:100FAC0080B400AF064BD3F84C31054A23F0010353
:100FBC00C2F84C3100BFBD465DF8047B704700BFE2
:100FCC000004004480B400AF074BD3F84C3103F05D
:100FDC000103012B01D1012300E000231846BD467B
:100FEC005DF8047B704700BF0004004480B400AF80
:100FFC00064B1B6923F0FF03044A43F06A03136199
:10100C0000BFBD465DF8047B704700BF0004004480
:10101C0080B400AF034B5B69DBB21846BD465DF88C
:10102C00047B70470004004480B483B000AF786048
:10103C00074BD3F8A03023F0030205497B68134318
:10104C00C1F8A03000BF0C37BD465DF8047B70477B
:10105C000004004480B400AF044BD3F8A03003F07C
:10106C0003031846BD465DF8047B7047000400443A
:10107C0080B483B000AF7860064B9B6923F0030209
:10108C0004497B6813438B6100BF0C37BD465DF888
:10109C00047B70470004004480B400AF044B9B6990
:1010AC0003F003031846BD465DF8047B704700BF90
:1010BC000004004480B400AF064B1B6A23F0FF030E
:1010CC00044A43F0B403136200BFBD465DF8047BD1
:1010DC00704700BF0004004480B400AF064B1B6A8D
:1010EC0023F47F43044A43F43443136200BFBD46E8
:1010FC005DF8047B704700BF0004004480B483B0EB
:10110C0000AF78607B68B42B0AD0094B1B6A23F4C0
:10111C007F027B681B04064913430B62002300E02B
:10112C00012318460C37BD465DF8047B704700BFA1
:10113C000004004480B400AF044B1B6A1B0CDBB2F0
:10114C001846BD465DF8047B704700BF00040044A0
:10115C0080B400AF064B5B6A23F0FF03044A43F0F4
:10116C00C303536200BFBD465DF8047B704700BFEC
:10117C000004004480B483B000AF7860074B1B6A56
:10118C0023F07F427B681B06044913430B6200BFAC
:10119C000C37BD465DF8047B704700BF000400446B
:1011AC0080B400AF044B1B6A1B0EDBB21846BD4665
:1011BC005DF8047B704700BF0004004480B483B02A
:1011CC0000AF7860054A7B689BB2C2F8443100BF1F
:1011DC000C37BD465DF8047B704700BF000400442B
:1011EC0080B485B000AF78607B68002B01D10123FF
:1011FC0007E0074BD3F84431FB607B68FA681A6050
:10120C00002318461437BD465DF8047B704700BFB9
:10121C000004004480B487B000AF786039600023CC
:10122C003B6142E13B681A6801213B6901FA03F317
:10123C001340FB60FB68002B00F034813B685B685B
:10124C00022B03D03B685B68122B25D13B69DA0873
:10125C007B68083253F822307B613B6903F007034B
:10126C009B000F2202FA03F3DB437A6913407B6184
:10127C003B681B6903F00F023B6903F007039B00FB
:10128C0002FA03F37A6913437B613B69DA087B68E2
:10129C000832796943F822107B681B687B613B69D3
:1012AC005B00032202FA03F3DB437A6913407B6190
:1012BC003B685B6803F003023B695B0002FA03F3D3
:1012CC007A6913437B617B687A691A603B685B6857
:1012DC00012B0BD03B685B68022B07D03B685B682B
:1012EC00112B03D03B685B68122B30D17B689B6859
:1012FC007B613B695B00032202FA03F3DB437A69EF
:10130C0013407B613B68DA683B695B0002FA03F3CC
:10131C007A6913437B617B687A699A607B685B6846
:10132C007B6101223B6902FA03F3DB437A691340C8
:10133C007B613B685B681B0903F001023B6902FAA5
:10134C0003F37A6913437B617B687A695A603B6863
:10135C005B6803F00303032B09D13B685B6803F064
:10136C000303032B1BD13B689B68012B17D07B68B5
:10137C00DB687B613B695B00032202FA03F3DB430E
:10138C007A6913407B613B689A683B695B0002FA9F
:10139C0003F37A6913437B617B687A69DA603B6893
:1013AC005B6803F08053002B7CD0474A3B699B0859
:1013BC00183352F823307B613B6903F00303DB00E5
:1013CC000F2202FA03F3DB437A6913407B617B68DB
:1013DC009A0A3E4B13403A6902F00302D200934042
:1013EC007A6913437B6138493B699B0818337A69E6
:1013FC0041F82320344B1B687B61FB68DB437A6923
:10140C0013407B613B685B6803F48013002B03D0B3
:10141C007A69FB6813437B612B4A7B6913602A4B07
:10142C005B687B61FB68DB437A6913407B613B68DB
:10143C005B6803F40013002B03D07A69FB68134339
:10144C007B61214A7B6953601F4BD3F884307B61ED
:10145C00FB68DB437A6913407B613B685B6803F490
:10146C000033002B03D07A69FB6813437B61164A67
:10147C007B69C2F88430144BD3F880307B61FB68F5
:10148C00DB437A6913407B613B685B6803F4803310
:10149C00002B03D07A69FB6813437B610A4A7B6992
:1014AC00C2F880303B6901333B613B681A683B6989
:1014BC0022FA03F3002B7FF4B5AE00BF00BF1C373C
:1014CC00BD465DF8047B7047002002447F7F2F00EF
:1014DC0080B487B000AF7860396000237B61A0E0F6
:1014EC0001227B6902FA03F33A6813403B613B69C2
:1014FC00002B00F09380524A7B699B08183352F8FA
:10150C002330FB607B6903F00303DB000F2202FA3C
:10151C0003F3FA681340FB607B689A0A494B13404B
:10152C007A6902F00302D2009340FA689A4236D1EB
:10153C00434BD3F880203B69DB4341491340C1F84E
:10154C0080303F4BD3F884203B69DB433C4913404C
:10155C00C1F884303A4B1A683B69DB433849134075
:10156C000B60374B5A683B69DB43354913404B6082
:10157C007B6903F00303DB000F2202FA03F3FB6029
:10158C002F4A7B699B08183352F82310FB68DA4307
:10159C002B487B699B080A40183340F823207B6852
:1015AC001A687B695B00032101FA03F31A437B6819
:1015BC001A607B69DA087B68083253F822107B6961
:1015CC0003F007039B000F2202FA03F3DB437A6953
:1015DC00D20819407B68083243F822107B689A685D
:1015EC007B695B00032101FA03F3DB431A407B6840
:1015FC009A607B685A6801217B6901FA03F3DB432B
:10160C001A407B685A607B68DA687B695B0003214F
:10161C0001FA03F3DB431A407B68DA607B69013320
:10162C007B613A687B6922FA03F3002B7FF458AF95
:10163C0000BF00BF1C37BD465DF8047B704700BF80
:10164C00002002447F7F2F0080B485B000AF78600B
:10165C000B467B807B681A697B881340002B02D079
:10166C000123FB7301E00023FB73FB7B184614374B
:10167C00BD465DF8047B704780B483B000AF7860E2
:10168C000B467B8013467B707B78002B03D07A88CB
:10169C007B689A6102E07A887B689A6200BF0C379B
:1016AC00BD465DF8047B704780B485B000AF7860B0
:1016BC000B467B8013463B807B881A043B88134384
:1016CC00FB607B68FA689A6100BF1437BD465DF811
:1016DC00047B704780B485B000AF78600B467B808C
:1016EC007B685B69FB607A88FB6813401A04FB68B3
:1016FC00D9437B880B401A437B689A6100BF14372F
:10170C00BD465DF8047B704780B485B000AF78604F
:10171C000B467B804FF48033FB607A88FB68134365
:10172C00FB60FA687B68DA617A887B68DA61FA6850
:10173C007B68DA617B68DB69FB607B68DB6903F4DF
:10174C008033B3F5803F01D0012300E0002318461D
:10175C001437BD465DF8047B704780B483B000AF8E
:10176C0078600B467B807B68DA6A7B881A437B68DF
:10177C00DA6200BF0C37BD465DF8047B704780B45D
:10178C0083B000AF78600B467B807B68DB6A7A881D
:10179C00D2431A407B68DA6200BF0C37BD465DF855
:1017AC00047B704780B582B000AF0346FB800F4BC3
:1017BC00DA68FB881340002B06D00C4AFB88D360F8
:1017CC00FB88184600F014F8084B1A69FB88134084
:1017DC00002B06D0054AFB881361FB88184600F0E5
:1017EC0012F800BF0837BD4680BD00BF0020024480
:1017FC0080B483B000AF0346FB8000BF0C37BD46FE
:10180C005DF8047B704780B483B000AF0346FB8067
:10181C0000BF0C37BD465DF8047B704780B582B0C5
:10182C0000AF854B1B6803F00F03022B0FD8824BC4
:10183C001B6823F00F03804A43F0030313607E4BB5
:10184C001B6803F00F03032B01D00123F0E0FFF71B
:10185C00E5F87860794B1B68784A43F00103136014
:10186C0008E0FFF7DBF802467B68D31A022B01D99C
:10187C000323DDE0714B1B6803F00203002BF0D057
:10188C006E4B1B686D4A23F0180313606B4B4FF4BF
:10189C0080021A616A4B1B681846FFF735F803463D
:1018AC00002B01D00123C3E0FFF7B8F87860634B3D
:1018BC000022DA61614B00221A620AE0FFF7AEF8EF
:1018CC0002467B68D31A41F28832934201D9032332
:1018DC00AEE05A4BDB6903F01803002BEED1574BEB
:1018EC001A685649574B13400B60544B1B68534AAC
:1018FC0023F480131360FFF791F878604F4B1B684B
:10190C004E4A23F08073136008E0FFF787F8024615
:10191C007B68D31A022B01D9032389E0474B1B6840
:10192C0003F00073002BF0D1FFF778F87860434B8D
:10193C001B68424A23F08063136008E0FFF76EF8DF
:10194C0002467B68D31A022B01D9032370E03B4B70
:10195C001B6803F00063002BF0D1FFF75FF8786091
:10196C00364B1B68354A23F08053136008E0FFF7B1
:10197C0055F802467B68D31A022B01D9032357E092
:10198C002E4B1B6803F00053002BF0D12B4B002285
:10199C009A622A4B2C4A5A63284B00229A63274B93
:1019AC000022DA62254B284ADA63244B00221A649F
:1019BC00224B00221A63214B234A5A641F4B0022EC
:1019CC009A641E4B1B681D4A23F4802313601B4B27
:1019DC0000221A65194B4FF0FF329A65174BD3F85A
:1019EC00F430164A43F40003C2F8F430174B184A8B
:1019FC001A60114B1B6803F00C03002B0FD00E4B1D
:101A0C001B6823F00F030C4A43F0030313600A4BCB
:101A1C001B6803F00F03032B01D0012308E00F20F8
:101A2C00FEF772FF0346002B01D0012300E00023D8
:101A3C0018460837BD4680BD00200240000C024409
:101A4C0004000020FBEAF6FF8002010100000020E8
:101A5C000090D00380B588B000AF78607B68002B15
:101A6C0002D1012300F028BC944BDB6903F018036E
:101A7C00FB61924B9B6A03F00303BB617B681B68A1
:101A8C0003F01003002B5BD0FB69082B05D0FB691E
:101A9C00182B14D1BB69022B11D17B68DB69002B8D
:101AAC0002D1012300F008BC844B9B6923F47C1207
:101ABC007B681B6A1B04814913438B6140E07B6884
:101ACC00DB69002B23D07D4B1B687C4A43F480736D
:101ADC001360FEF7A3FF786108E0FEF79FFF024654
:101AEC007B69D31A022B01D90323E5E3734B1B68E3
:101AFC0003F40073002BF0D0704B9B6923F47C1221
:101B0C007B681B6A1B046D4913438B6118E06B4B9C
:101B1C001B686A4A23F480731360FEF77FFF7861B9
:101B2C0008E0FEF77BFF02467B69D31A022B01D932
:101B3C000323C1E3614B1B6803F40073002BF0D14A
:101B4C007B681B6803F00103002B00F0A080FB698D
:101B5C00102B05D0FB69182B09D1BB69032B06D1BF
:101B6C007B685B68002B40F092800123A4E37B68C8
:101B7C005B68B3F5803F06D1504B1B684F4A43F46A
:101B8C008033136058E07B685B68002B12D14B4BA1
:101B9C001B684A4A23F480331360484B1B68474A3E
:101BAC0023F480131360454B1B68444A23F48023B1
:101BBC00136041E07B685B68B3F5A02F12D13F4BFB
:101BCC001B683E4A43F4802313603C4B1B683B4A22
:101BDC0023F480131360394B1B68384A43F4803369
:101BEC00136029E07B685B68B3F5A81F12D1334BF7
:101BFC001B68324A43F480231360304B1B682F4A16
:101C0C0043F4801313602D4B1B682C4A43F4803330
:101C1C00136011E0294B1B68284A23F480331360AE
:101C2C00264B1B68254A23F480231360234B1B6827
:101C3C00224A23F4801313607B685B68002B13D05B
:101C4C00FEF7ECFE786108E0FEF7E8FE02467B69E1
:101C5C00D31A642B01D903232EE3184B1B6803F40E
:101C6C000033002BF0D012E0FEF7D8FE786108E0CC
:101C7C00FEF7D4FE02467B69D31A642B01D90323E9
:101C8C001AE30E4B1B6803F40033002BF0D17B6876
:101C9C001B6803F00203002B00F09A80FB69002BF9
:101CAC0005D0FB69182B49D1BB69012B46D17B6848
:101CBC00DB68002B04D10123FEE200BF000C0244C0
:101CCC00FB69002B1CD19A4B1B6803F018027B6834
:101CDC001B699A4214D0964B1B6823F018027B6840
:101CEC001B69934913430B6000F03AFE914B1B6840
:101CFC001846FEF709FE0346002B01D00123DBE258
:101D0C00FEF78CFE786108E0FEF788FE02467B69E0
:101D1C00D31A022B01D90323CEE2854B1B6803F0A7
:101D2C000203002BF0D0824B1B6923F4FE027B686C
:101D3C005B691B047E4913430B6149E07B68DB68DC
:101D4C00002B2CD07A4B1B6823F018027B681B6984
:101D5C00774913430B60764B1B68754A43F00103BC
:101D6C001360FEF75BFE786108E0FEF757FE024653
:101D7C007B69D31A022B01D903239DE26C4B1B68A0
:101D8C0003F00203002BF0D0694B1B6923F4FE0215
:101D9C007B685B691B04664913430B6118E0644B59
:101DAC001B68634A23F001031360FEF737FE78616A
:101DBC0008E0FEF733FE02467B69D31A022B01D9E9
:101DCC00032379E25A4B1B6803F00203002BF0D17A
:101DDC007B681B6803F00803002B3CD07B689B6975
:101DEC00002B1CD0524BD3F8F030514A43F0806397
:101DFC00C2F8F030FEF712FE786108E0FEF70EFE36
:101E0C0002467B69D31A022B01D9032354E2484BB7
:101E1C00D3F8F03003F00063002BEFD01BE0444B01
:101E2C00D3F8F030424A23F08063C2F8F030FEF76A
:101E3C00F5FD786108E0FEF7F1FD02467B69D31AE7
:101E4C00022B01D9032337E2394BD3F8F03003F0DE
:101E5C000063002BEFD17B681B6803F00403002B9D
:101E6C0000F0D280344B5B6A03F00103002B18D1D5
:101E7C00314B5B6A304A43F001035362FEF7CEFDEF
:101E8C00786108E0FEF7CAFD02467B69D31A022B83
:101E9C0001D9032310E2284B5B6A03F00103002BEA
:101EAC00F0D07B689B68012B08D1214BD3F8F03024
:101EBC001F4A43F00103C2F8F03074E07B689B6862
:101ECC00002B18D11A4BD3F8F030194A23F0010328
:101EDC00C2F8F030164BD3F8F030154A23F08003DB
:101EEC00C2F8F030124BD3F8F030114A23F004034F
:101EFC00C2F8F03057E07B689B68052B1ED10C4B69
:101F0C00D3F8F0300A4A43F00403C2F8F030084B1F
:101F1C00D3F8F030064A23F08003C2F8F030044BBB
:101F2C00D3F8F030024A43F00103C2F8F0303AE043
:101F3C00000C024404000020000802447B689B68EB
:101F4C00852B18D1A24BD3F8F030A14A43F00403EF
:101F5C00C2F8F0309E4BD3F8F0309D4A43F080032A
:101F6C00C2F8F0309A4BD3F8F030994A43F00103A1
:101F7C00C2F8F03017E0964BD3F8F030944A23F0C7
:101F8C000103C2F8F030924BD3F8F030904A23F0B2
:101F9C000403C2F8F0308E4BD3F8F0308C4A23F0A7
:101FAC008003C2F8F0307B689B68002B16D0FEF7DC
:101FBC0035FD78610AE0FEF731FD02467B69D31AE4
:101FCC0041F28832934201D9032375E1804BD3F857
:101FDC00F03003F00203002BEDD015E0FEF71EFDF0
:101FEC0078610AE0FEF71AFD02467B69D31A41F2CA
:101FFC008832934201D903235EE1754BD3F8F0305C
:10200C0003F00203002BEDD17B681B6803F0200367
:10201C00002B36D07B685B6A002B19D06C4B1B688D
:10202C006B4A43F480531360FEF7F8FC786108E0C8
:10203C00FEF7F4FC02467B69D31A022B01D9032369
:10204C003AE1634B1B6803F40053002BF0D018E00B
:10205C005F4B1B685E4A23F480531360FEF7DEFC73
:10206C00786108E0FEF7DAFC02467B69D31A022B92
:10207C0001D9032320E1564B1B6803F40053002BBA
:10208C00F0D17B689B6A002B00F01581FB69182B43
:10209C0000F0AF807B689B6A022B40F086804C4B33
:1020AC001B684B4A23F080731360FEF7B7FC786112
:1020BC0008E0FEF7B3FC02467B69D31A022B01D968
:1020CC000323F9E0424B1B6803F00073002BF0D1A3
:1020DC003F4B9B6A23F47C5323F003037A68D16A49
:1020EC007A68126B12020A43394913438B627B687C
:1020FC005B6B013BC3F308027B689B6B013B5B0290
:10210C009BB21A437B68DB6B013B1B0403F4FE039D
:10211C001A437B681B6C013B1B0603F0FE432C49E6
:10212C0013434B632A4B9B6A294A23F01003936297
:10213C007B68DB6C264ADB009363254B9B6A244A45
:10214C0043F010039362224B9B6A23F00C027B68D2
:10215C005B6C1F4913438B621D4B9B6A23F020025F
:10216C007B689B6C1A4913438B62194B9B6A184A08
:10217C0043F480339362164B1B68154A43F080730B
:10218C001360FEF74BFC786108E0FEF747FC024653
:10219C007B69D31A022B01D903238DE00C4B1B68EE
:1021AC0003F00073002BF0D085E0094B1B68084A44
:1021BC0023F080731360FEF731FC78610AE0FEF7C0
:1021CC002DFC02467B69D31A022B03D9032373E03F
:1021DC00000C02443A4B1B6803F00073002BEED149
:1021EC00374B9B6A364A23F4E02323F003039362B4
:1021FC0061E0334B9B6A3B61314B5B6BFB607B68F3
:10220C009B6A012B31D03B6903F003027B68DB6ACC
:10221C009A422AD13B691B0A03F03F027B681B6B75
:10222C009A4222D1FB68C3F308027B685B6B013BCB
:10223C009A421AD1FB685B0A03F07F027B689B6BA6
:10224C00013B9A4211D1FB681B0C03F07F027B68A7
:10225C00DB6B013B9A4208D1FB681B0E03F07F023B
:10226C007B681B6C013B9A4201D0012324E0144B88
:10227C009B6BDB08C3F30C027B68DB6C9A421AD0B5
:10228C000F4B9B6A0E4A23F010039362FEF7C6FBBA
:10229C00786100BFFEF7C2FB02467B699342F9D01E
:1022AC007B68DB6C064ADB009363054B9B6A044A34
:1022BC0043F010039362002318462037BD4680BDBF
:1022CC00000C024480B584B000AF786039607B6844
:1022DC00002B01D101239EE1834B1B6803F00F03FC
:1022EC003A689A4210D9804B1B6823F00F027E4942
:1022FC003B6813430B607C4B1B6803F00F033A687D
:10230C009A4201D0012386E17B681B6803F010031D
:10231C00002B12D07B685A69744B1B6A1B0A03F0A2
:10232C0070039A4209D9714B1B6A23F4E0427B6813
:10233C005B691B026D4913430B627B681B6803F0DE
:10234C000803002B12D07B681A69684B1B6A1B09A7
:10235C0003F070039A4209D9644B1B6A23F4E062C0
:10236C007B681B691B01614913430B627B681B680B
:10237C0003F00403002B10D07B68DA685B4B1B6AFC
:10238C0003F070039A4208D9584B1B6A23F0700271
:10239C007B68DB68554913430B627B681B6803F051
:1023AC000203002B10D07B689A68504B1B6A03F019
:1023BC000F039A4208D94D4B1B6A23F00F027B681E
:1023CC009B684A4913430B627B681B6803F001034B
:1023DC00002B00F093807B685B68032B07D1434B89
:1023EC001B6803F00073002B21D1012313E17B68E0
:1023FC005B68022B07D13D4B1B6803F40033002BA9
:10240C0015D1012307E17B685B68012B07D1374BA2
:10241C001B6803F40073002B09D10123FBE0334B41
:10242C001B6803F00203002B01D10123F3E02F4BB7
:10243C00DB6923F003027B685B682C491343CB6197
:10244C00FEF7ECFAF8607B685B68032B12D10AE0AC
:10245C00FEF7E4FA0246FB68D31A41F28832934243
:10246C0001D90323D7E0214BDB6903F01803182BA8
:10247C00EED143E07B685B68022B12D10AE0FEF7D9
:10248C00CDFA0246FB68D31A41F28832934201D945
:10249C000323C0E0154BDB6903F01803102BEED1BE
:1024AC002CE07B685B68012B22D10AE0FEF7B6FAC0
:1024BC000246FB68D31A41F28832934201D90323B6
:1024CC00A9E00A4BDB6903F01803082BEED115E0E9
:1024DC00FEF7A4FA0246FB68D31A41F28832934203
:1024EC0006D9032397E000BF00200240000C0244F1
:1024FC004B4BDB6903F01803002BE9D17B681B689D
:10250C0003F00203002B10D07B689A68444B1B6AC3
:10251C0003F00F039A4208D2414B1B6A23F00F02BF
:10252C007B689B683E4913430B623E4B1B6803F070
:10253C000F033A689A4210D23A4B1B6823F00F02F1
:10254C0038493B6813430B60364B1B6803F00F0391
:10255C003A689A4201D001235DE07B681B6803F066
:10256C000403002B10D07B68DA682D4B1B6A03F038
:10257C0070039A4208D22A4B1B6A23F070027B68C4
:10258C00DB68274913430B627B681B6803F0080365
:10259C00002B12D07B681A69214B1B6A1B0903F0B4
:1025AC0070039A4209D21E4B1B6A23F4E0627B68CB
:1025BC001B691B011A4913430B627B681B6803F0F0
:1025CC001003002B12D07B685A69154B1B6A1B0A2F
:1025DC0003F070039A4209D2114B1B6A23F4E042B8
:1025EC007B685B691B020E4913430B6200F08CF88D
:1025FC0002460B4B1B6A03F00F030B49CB5C22FA10
:10260C0003F30A4A13600A4B1B681846FEF77CF961
:10261C000346FB72FB7A18461037BD4680BD00BFDF
:10262C00000C024400200240543500080000002039
:10263C000400002080B58CB000AFF860B9607A60FF
:10264C00FB68002B2AD12D4BD3F88C302B4A43F04E
:10265C000103C2F88C30294BD3F88C3003F0010302
:10266C00BB61BB694FF48073FB6102233B620323A4
:10267C00BB6200237B620023FB6207F11C0319463B
:10268C001F48FEF7C7FD1D4BDB6923F0FE72B968CE
:10269C007B680B4319491343CB612AE0174BD3F8E2
:1026AC008C30164A43F00403C2F88C30134BD3F829
:1026BC008C3003F004037B617B694FF40073FB6186
:1026CC0002233B620323BB6200237B620023FB6279
:1026DC0007F11C0319460B48FEF79CFD074BDB6901
:1026EC0023F07E427B68D901BB680B43034913433B
:1026FC00CB6100BF3037BD4680BD00BF000C02442B
:10270C00000002420008024280B489B000AF8C4B3A
:10271C00DB6903F01803082B02D18A4BFB6107E13C
:10272C00874BDB6903F01803002B12D1844B1B6819
:10273C0003F02003002B09D0814B1B68DB0803F04E
:10274C000303814A22FA03F3FB61F1E07E4BFB6148
:10275C00EEE07B4BDB6903F01803102B02D17B4BB3
:10276C00FB61E5E0764BDB6903F01803182B40F0B6
:10277C00DD80734B9B6A03F003037B61704B9B6A98
:10278C001B0A03F03F033B616D4B9B6A1B0903F073
:10279C000103FB606A4B9B6BDB08C3F30C03FA6809
:1027AC0002FB03F307EE903AF8EE677AC7ED027A74
:1027BC003B69002B00F0B7807B69012B03D07B6950
:1027CC00032B56D077E05E4B1B6803F02003002BE5
:1027DC002DD05B4B1B68DB0803F003035A4A22FA2B
:1027EC0003F37B607B6807EE903AF8EE676A3B690F
:1027FC0007EE903AF8EE677A86EEA77A504B5B6B51
:10280C00C3F3080307EE903AF8EE676A97ED026A95
:10281C00DFED4F5AC6EE257A76EEA77AF7EE006A10
:10282C0077EEA67A67EE277AC7ED067A65E03B6904
:10283C0007EE903AF8EE677ADFED466A86EEA77AF5
:10284C003F4B5B6BC3F3080307EE903AF8EE676AF5
:10285C0097ED026ADFED3E5AC6EE257A76EEA77A40
:10286C00F7EE006A77EEA67A67EE277AC7ED067A5E
:10287C0043E03B6907EE903AF8EE677ADFED366A93
:10288C0086EEA77A2E4B5B6BC3F3080307EE903AE8
:10289C00F8EE676A97ED026ADFED2D5AC6EE257ADF
:1028AC0076EEA77AF7EE006A77EEA67A67EE277ACD
:1028BC00C7ED067A21E03B6907EE903AF8EE677AAD
:1028CC00DFED266A86EEA77A1D4B5B6BC3F308031C
:1028DC0007EE903AF8EE676A97ED026ADFED1C5A44
:1028EC00C6EE257A76EEA77AF7EE006A77EEA67A30
:1028FC0067EE277AC7ED067A00BF114B5B6B5B0A5C
:10290C0003F07F0301333B603B6807EE903AB8EE6F
:10291C00677AD7ED066AC6EE877AFCEEE77A17EE91
:10292C00903AFB6104E00023FB6101E0064BFB6184
:10293C00FB6918462437BD465DF8047B704700BF21
:10294C00000C024400093D000090D00340787D014A
:10295C00000000460024744C20BCBE4B0024744A7A
:10296C0080B500AFFFF7D0FE0246084B1B6A03F0A0
:10297C000F030749CB5C03F01F0322FA03F3054A4C
:10298C001360044B1B68184680BD00BF000C02444A
:10299C00543500080000002080B500AFFFF7E0FFC1
:1029AC000246064B1B6A1B0903F007030449CB5C68
:1029BC0003F01F0322FA03F3184680BD000C0244F7
:1029CC006435000880B500AFFFF7CAFF0246064B1E
:1029DC001B6A1B0A03F007030449CB5C03F01F03BB
:1029EC0022FA03F3184680BD000C0244643500083B
:1029FC0080B500AFFFF7B4FF0246064B1B6A1B0BFA
:102A0C0003F007030449CB5C03F01F0322FA03F322
:102A1C00184680BD000C02446435000880B487B0B1
:102A2C0000AF78607B683F221A60424B1B687B6169
:102A3C007B6903F4A8127B685A607B6903F480728B
:102A4C007B68DA617B6903F001027B68DA607B6981
:102A5C0003F018027B681A61364B1B691B0C03F0E0
:102A6C007F027B685A61334BD3F8F0307B617B6912
:102A7C0003F085027B689A607B6903F080627B6857
:102A8C009A612C4B1B687B617B6903F480527B68D9
:102A9C005A627B6903F08073002B03D07B6802229F
:102AAC009A6202E07B6801229A62224B9B6A3B612C
:102ABC00204B5B6BFB603B6903F003027B68DA62C3
:102ACC003B691B0A03F03F027B681A63FB68C3F384
:102ADC0008035A1C7B685A63FB681B0C03F07F03CA
:102AEC005A1C7B68DA63FB681B0E03F07F035A1CCD
:102AFC007B681A64FB685B0A03F07F035A1C7B68D3
:102B0C009A633B6903F00C027B685A643B695B096E
:102B1C0003F001027B689A64064B9B6BDB08C3F3E2
:102B2C000C027B68DA6400BF1C37BD465DF8047B81
:102B3C00704700BF000C024480B485B000AF7860D1
:102B4C0039607B681F221A60154BDB6903F00302A6
:102B5C007B685A60124B1B6AFB60FB6803F00F0228
:102B6C007B689A60FB6803F070027B68DA60FB6834
:102B7C001B0903F070027B681A61FB681B0A03F0E7
:102B8C0070027B685A61074B1B6803F00F023B68AD
:102B9C001A6000BF1437BD465DF8047B704700BF58
:102BAC00000C02440020024080B483B000AF0A4BFA
:102BBC00D3F8F43003F07C437B60074BD3F8F4304C
:102BCC00054A43F40003C2F8F4307B6818460C370E
:102BDC00BD465DF8047B7047000C024480B400AF26
:102BEC00054B1B68044A43F40023136000BFBD4629
:102BFC005DF8047B704700BF000C024480B500AF49
:102C0C00074B5B6D03F48063B3F5806F05D1044B08
:102C1C004FF480629A6500F005F800BF80BD00BFDC
:102C2C00000C024480B400AF00BFBD465DF8047BCD
:102C3C00704780B483B000AF786039603B68012B7B
:102C4C0003D03B68022B09D011E00C4BD3F81431A4
:102C5C000A4A43F00203C2F8143108E0074BD3F8D8
:102C6C001431064A23F00203C2F8143100BF00BF2E
:102C7C000C37BD465DF8047B704700BF000C024466
:102C8C0080B485B000AF786039603B68002B01D10F
:102C9C0001230EE00A4BD3F8143103F00203002B8E
:102CAC0001D1022300E00123FB603B68FA681A6043
:102CBC00002318461437BD465DF8047B704700BFEF
:102CCC00000C024480B485B000AF78607B6803F0E0
:102CDC000703FB600C4BDB68BB60BA684FF6FF0365
:102CEC001340BB60FB681A02BB68134343F0BF631D
:102CFC0043F40033BB60044ABB68D36000BF143795
:102D0C00BD465DF8047B704700ED00E080B400AF79
:102D1C00044BDB681B0A03F007031846BD465DF83D
:102D2C00047B704700ED00E080B483B000AF034635
:102D3C00FB80B7F90630002B0BDBFB8803F01F027E
:102D4C000749B7F906305B09012000FA02F241F895
:102D5C00232000BF0C37BD465DF8047B704700BFD5
:102D6C0000E100E080B483B000AF0346FB80B7F90C
:102D7C000630002B12DBFB8803F01F020A49B7F95F
:102D8C0006305B09012000FA02F2203341F82320BF
:102D9C00BFF34F8F00BFBFF36F8F00BF00BF0C3767
:102DAC00BD465DF8047B704700E100E080B483B061
:102DBC0000AF0346FB80B7F90630002B0EDB0B4A45
:102DCC00B7F906305B09403352F82320FB8803F037
:102DDC001F0322FA03F303F0010300E0002318465B
:102DEC000C37BD465DF8047B704700BF00E100E086
:102DFC0080B483B000AF0346FB80B7F90630002BDC
:102E0C000CDBFB8803F01F020749B7F906305B099E
:102E1C00012000FA02F2403341F8232000BF0C37A6
:102E2C00BD465DF8047B704700E100E080B483B0E0
:102E3C0000AF0346FB80B7F90630002B0CDBFB8898
:102E4C0003F01F020749B7F906305B09012000FAAD
:102E5C0002F2603341F8232000BF0C37BD465DF809
:102E6C00047B704700E100E080B483B000AF034600
:102E7C00FB80B7F90630002B0EDB0B4AB7F9063096
:102E8C005B09803352F82320FB8803F01F0322FADE
:102E9C0003F303F0010300E0002318460C37BD4692
:102EAC005DF8047B704700BF00E100E080B483B0A4
:102EBC0000AF03463960FB80B7F90630002B0ADB04
:102ECC003B68DAB20C49B7F906301201D2B20B44A6
:102EDC0083F800230AE03B68DAB20849FB8803F068
:102EEC000F03043B1201D2B20B441A7600BF0C370D
:102EFC00BD465DF8047B704700E100E000ED00E0AA
:102F0C0080B483B000AF0346FB80B7F90630002BCA
:102F1C0009DB0D4AB7F90630134493F80033DBB2E2
:102F2C001B09DBB209E0094AFB8803F00F03043BE1
:102F3C0013441B7EDBB21B09DBB218460C37BD46B3
:102F4C005DF8047B704700BF00E100E000ED00E09D
:102F5C0080B489B000AFF860B9607A60FB6803F0A8
:102F6C000703FB61FB69C3F10703042B28BF042390
:102F7C00BB61FB690433062B02D9FB69033B00E000
:102F8C0000237B614FF0FF32BB6902FA03F3DA4393
:102F9C00BB681A407B699A404FF0FF317B6901FA9C
:102FAC0003F3D9437B680B40134318462437BD46C3
:102FBC005DF8047B704780B489B000AFF860B960ED
:102FCC007A603B60BB6803F00703FB61FB69C3F1EC
:102FDC000703042B28BF0423BB61FB690433062BB6
:102FEC0002D9FB69033B00E000237B61FA687B6933
:102FFC00DA404FF0FF31BB6901FA03F3DB431A40AF
:10300C007B681A604FF0FF327B6902FA03F3DA43F4
:10301C00FB681A403B681A6000BF2437BD465DF858
:10302C00047B704780B400AFBFF34F8F00BF064BDB
:10303C00DB6803F4E0620449044B1343CB60BFF339
:10304C004F8F00BF00BFFDE700ED00E00400FA0564
:10305C0080B582B000AF78607868FFF733FE00BFB0
:10306C000837BD4680BD80B586B000AF0346B96059
:10307C007A60FB81FFF74AFE78617A68B9687869F3
:10308C00FFF766FF0246B7F90E3011461846FFF7F8
:10309C000DFF00BF1837BD4680BD80B582B000AFB4
:1030AC000346FB80B7F906301846FFF73DFE00BF1C
:1030BC000837BD4680BD80B582B000AF0346FB80AB
:1030CC00B7F906301846FFF74DFE00BF0837BD466E
:1030DC0080BD80B500AFFFF7A5FF80B500AFFFF74F
:1030EC0015FE0346184680BD80B584B000AFB960AC
:1030FC007A603B600346FB81B7F90E301846FFF748
:10310C00FFFE3B687A68B968FFF755FF00BF1037C0
:10311C00BD4680BD80B582B000AF0346FB80B7F9D9
:10312C0006301846FFF764FE00BF0837BD4680BD69
:10313C0080B582B000AF0346FB80B7F90630184665
:10314C00FFF734FE034618460837BD4680BD80B5F0
:10315C0082B000AF0346FB80B7F906301846FFF784
:10316C0065FE00BF0837BD4680BD80B582B000AF9C
:10317C000346FB80B7F906301846FFF775FE034689
:10318C0018460837BD4680BD80B483B000AF786068
:10319C007B68013BB3F1807F01D301230DE00A4A28
:1031AC007B68013B5360084B00229A60064B1B68FE
:1031BC00054A43F003031360002318460C37BD4641
:1031CC005DF8047B704700BF10E000E080B483B072
:1031DC0000AF78607B68042B44D801A252F823F02E
:1031EC000F3200082D3200084F32000871320008EF
:1031FC00013200081F4B1B681E4A43F00403136086
:10320C0031E01C4B1B681B4A23F0040313601A4B60
:10321C00D3F8E430184A23F00C03C2F8E43022E06F
:10322C00144B1B68134A23F004031360124BD3F89E
:10323C00E43023F00C03104A43F00403C2F8E430EA
:10324C0011E00C4B1B680B4A23F0040313600A4B70
:10325C00D3F8E43023F00C03074A43F00803C2F818
:10326C00E43000E000BF00BF0C37BD465DF8047BC6
:10327C00704700BF10E000E0000C024480B483B043
:10328C0000AF174B1B6803F00403002B02D0042380
:10329C007B601EE0134BD3F8E43003F00C033B606F
:1032AC003B68082B0FD03B68082B0FD83B68002BD2
:1032BC0003D03B68042B03D008E000237B6008E0BC
:1032CC0001237B6005E002237B6002E000237B602E
:1032DC0000BF7B6818460C37BD465DF8047B704711
:1032EC0010E000E0000C024480B500AF00F002F8E2
:1032FC0000BF80BD80B400AF00BFBD465DF8047B4D
:10330C00704780B483B000AF7860BFF35F8F00BFAD
:10331C000B4A7B6843F0010353600A4B5B6A094A12
:10332C0043F480335362BFF34F8F00BFBFF36F8FF3
:10333C0000BF00BF0C37BD465DF8047B704700BF73
:10334C0090ED00E000ED00E080B400AFBFF35F8FC4
:10335C0000BF0B4B5B6A0A4A23F480335362094B60
:10336C005B68084A23F001035360BFF34F8F00BF23
:10337C00BFF36F8F00BF00BFBD465DF8047B704785
:10338C0000ED00E090ED00E080B483B000AF786019
:10339C00074A7B689360064B1B69054A43F001039F
:1033AC00136100BF0C37BD465DF8047B704700BF4E
:1033BC0090ED00E080B483B000AF7860074A7B6882
:1033CC009360064B1B69054A23F00103136100BF90
:1033DC000C37BD465DF8047B704700BF90ED00E0F4
:1033EC0080B582B000AF78607968034800F014F8BB
:1033FC0000BF0837BD4680BD90ED00E080B582B0BF
:10340C0000AF78607968034800F03DF800BF0837DA
:10341C00BD4680BD90ED00E080B483B000AF786015
:10342C003960BFF35F8F00BF3B685B781A467B68DF
:10343C009A607B681B6923F001027B681A613B6808
:10344C005B6823F01F023B68DB7BDB001A433B68A5
:10345C005B7B5B0013433A68927B1A437B68DA60B0
:10346C003B689B6823F01F023B681B7B5B0013438C
:10347C003A6812781A437B681A6100BF0C37BD4654
:10348C005DF8047B704780B487B000AF786039601A
:10349C00BFF35F8F00BF3B681B78032B06D87B689C
:1034AC0030337B613B681B783B6106E07B683433CF
:1034BC007B613B681B78043B3B617B691B68FB6051
:1034CC003B69DB00FF2202FA03F3DB43FA6813408B
:1034DC00FB603B685B781A463B69DB009A40FB68F3
:1034EC001A437B691A6000BF1C37BD465DF8047B2C
:1034FC00704700BF0D488546FCF7D0FF0C480D49BE
:10350C000D4A002302E0D458C4500433C4188C4232
:10351C00F9D30A4A0A4C002301E013600432A24298
:10352C00FBD3FCF7B3FFFCF7FBFEFEE700000A2021
:10353C00000000200C0000203C3600080C0000208D
:08354C0010000020FEE7000062
:10355400000000000000000001020304060708093F
:10356400000000000102030400100000001000002D
:103574000010000000100000011100000207090DF6
:103584000305060802030405020203030202020201
:1035940002020202020202020202020200100000FF
:1035A40000100000001000000010000001110000D5
:1035B4000207090D030506080203040502020303BA
:1035C40002020202020202020202020202020202D7
:1035D40000100000001000000010000000100000A7
:1035E400011100000207090D030506080203040582
:1035F40002020303020202020202020202020202A5
:10360400020202020010000000100000001000007E
:1036140000100000011100000207090D030506084F
:10362400020304050202030302020202020202026E
:0836340002020202020202027E
:0C363C000090D00310000000010000000E
:0400000508003501B9
:00000001FF
